:060000000A128A110C280F
:10000800FE00030EF0000A08F1000A128A15132EEA
:100018000A128A110F28FA0183120313E301E4017B
:10002800E501E601E70183010A128A111B280A1279
:100038008A1175260A128A110A128A1538250A1297
:100048008A110A128A150B250A128A1100308312A6
:100058000313B8000030B7002530B6008030B50073
:100068000A128A15DF250A128A110A128A152B2507
:100078000A128A11831603138C160B178B17831217
:100088000313DD010030E1000030E0000030DF0044
:100098000030DE00E2010130C9000130CA00013041
:1000A800CB000130CC000030C8000030C700003061
:1000B800C6000030C5000330F30001300A128A116F
:1000C80024270A128A11003A03196B286D28013077
:1000D8006E28003083120313D3000430F30001307C
:1000E8000A128A1124270A128A11003A03197D2854
:1000F8007F2801308028003083120313D400053094
:10010800F30001300A128A1124270A128A11003AD0
:1001180003198F2891280130922800308312031385
:10012800D5000230F30001300A128A1124270A127E
:100138008A11003A0319A128A3280130A428003005
:1001480083120313D600CD0153080319AC28AD2838
:10015800B4284908031DB128B228B4280130CD00BD
:100168004D08031DB828BA280130BB280030D70035
:10017800CE0154080319C128C228C9284A08031DFA
:10018800C628C728C9280130CE004E08031DCD282F
:10019800CF280130D0280030D800CF0155080319E6
:1001A800D628D728DE284B08031DDB28DC28DE28C4
:1001B8000130CF004F08031DE228E4280130E5286C
:1001C8000030D900D00156080319EB28EC28F32891
:1001D8004C08031DF028F128F3280130D0005008FE
:1001E800031DF728F9280130FA280030DC005230C6
:1001F8006706031D00290129492BDD010430F3009E
:10020800F40103300A128A11AF250A128A11053047
:10021800F300F40103300A128A11AF250A128A1179
:100228000630F300F40103300A128A11AF250A12CE
:100238008A11003083120313B500B6000A128A151A
:1002480095270A128A1183120313E201E701492B49
:100258005708031D30293129372946306706031D01
:100268003629372962290130DD000A128A1514253A
:100278000A128A11760883120313E1007508E00058
:100288007408DF007308DE000430F300F401F40A98
:1002980003300A128A11AF250A128A11FF3083121D
:1002A8000313B5000330B6000A128A1595270A12FF
:1002B8008A1183120313E201E701572B5808031D23
:1002C800662967296D2942306706031D6C296D2947
:1002D80089290230DD000A128A1514250A128A11AA
:1002E800760883120313E1007508E0007408DF0044
:1002F8007308DE000530F300F401F40A03300A1233
:100308008A11AF250A128A1152295908031D8D290D
:100318008E29942953306706031D93299429572B56
:100328000330DD000A128A1514250A128A1176088C
:1003380083120313E1007508E0007408DF007308F6
:10034800DE000630F300F401F40A03300A128A11C1
:10035800AF250A128A1152295708031DB429B52955
:10036800BB2946306706031DBA29BB29CB290A12C7
:100378008A1514250A128A11760883120313E100DC
:100388007508E0007408DF007308DE00E7015C0808
:10039800031DCF29D029D62950306706031DD5293A
:1003A800D629DF2962080319DA29DC290130DD2979
:1003B8000030E200E70162080319E329E429F5297E
:1003C80000300A128A15B4250A128A117408831299
:1003D8000313B6007308B5000A128A1595270A1286
:1003E8008A110A128A1514250A128A1173088312AF
:1003F8000313BF007408C0007508C1007608C20066
:100408005E08BF025F08031C5F0F0B2A0C2AC0029C
:100418006008031C600F112A122AC1026108031C1C
:10042800610F172A182AC2024208031D2A2A410806
:10043800031D2A2A13304002031D262A88303F0252
:10044800031D262A031C292A2A2A572B0430F300C5
:10045800F40103300A128A11AF250A128A110030FA
:1004680083120313B500B6000A128A1595270A12DB
:100478008A1183120313DD01572B5808031D452ADF
:10048800462A4C2A42306706031D4B2A4C2A5C2A0E
:100498000A128A1514250A128A1176088312031380
:1004A800E1007508E0007408DF007308DE00E7016A
:1004B8005C08031D602A612A672A50306706031DFD
:1004C800662A672A702A620803196B2A6D2A013086
:1004D8006E2A0030E200E70162080319742A752ABF
:1004E800862A00300A128A15B4250A128A1174085D
:1004F80083120313B6007308B5000A128A159527EC
:100508000A128A110A128A1514250A128A11730806
:1005180083120313BF007408C0007508C100760871
:10052800C2005E08BF025F08031C5F0F9C2A9D2A59
:10053800C0026008031C600FA22AA32AC102610836
:10054800031C610FA82AA92AC2024208031DBB2A5C
:100558004108031DBB2A13304002031DB72A883007
:100568003F02031DB72A031CBA2ABB2A572B0530A2
:10057800F300F40103300A128A11AF250A128A1116
:10058800332A5908031DC92ACA2AD02A53306706B4
:10059800031DCF2AD02AE02A0A128A1514250A1226
:1005A8008A11760883120313E1007508E0007408C5
:1005B800DF007308DE00E7015C08031DE42AE52A72
:1005C800EB2A50306706031DEA2AEB2AF42A620850
:1005D8000319EF2AF12A0130F22A0030E200E7017C
:1005E80062080319F82AF92A0A2B00300A128A1518
:1005F800B4250A128A11740883120313B60073080B
:10060800B5000A128A1595270A128A110A128A1544
:1006180014250A128A11730883120313BF00740881
:10062800C0007508C1007608C2005E08BF025F08F6
:10063800031C5F0F202B212BC0026008031C600FD6
:10064800262B272BC1026108031C610F2C2B2D2B95
:10065800C2024208031D3F2B4108031D3F2B1330E4
:100668004002031D3B2B88303F02031D3B2B031C1C
:100678003E2B3F2B572B0630F300F40103300A12B0
:100688008A11AF250A128A11332A5D08003A031924
:100698002C29013A0319B029033A0319412A013ACE
:1006A8000319C52A3D2A831203135308C9005408A5
:1006B800CA005508CB005608CC000A128A15142522
:1006C8000A128A11730883120313BF007408C0004A
:1006D8007508C1007608C2004508BF024608031C19
:1006E800460F772B782BC0024708031C470F7D2B3A
:1006F8007E2BC1024808031C480F832B842BC2029F
:100708004208031D952B4108031D952B4008031D26
:10071800952B64303F02031D912B031C942B952BC2
:10072800672C0A128A1514250A128A117608831270
:100738000313C8007508C7007408C6007308C5000D
:1007480000300A128A15B4250A128A117408831215
:100758000313DB007308DA00FF30A0000330A100A8
:100768005B08F4005A08F3000530F5000030F60085
:100778000A128A158F250A128A1174088312031324
:10078800A3007308A2000A128A1584260A128A1185
:10079800831203132108C4002008C3006430A70093
:1007A8000030A800FF30A0000330A1005B08F4006F
:1007B8005A08F300F430F5000130F6000A128A15E1
:1007C8008F250A128A11740883120313A300730871
:1007D800A2000A128A1584260A128A1183120313A8
:1007E8002108AA002008A9000A128A154A260A1216
:1007F8008A11831203132808D2002708D1000E306B
:10080800F4000A128A1573250A128A118312031337
:100818005B08AC005A08AB000A128A152E270A1288
:100828008A110130F4000A128A1573250A128A11F6
:10083800831203134408AC004308AB000A128A155C
:100848002E270A128A111530F4000A128A15732508
:100858000A128A1100308312031352020A30031954
:1008680051020318382C392C402C1730F4000A1286
:100878008A1573250A128A11831203135208AC00D1
:100888005108AB000A128A152E270A128A1108305D
:10089800F4000A128A1573250A128A1183120313A7
:1008A8005D08BF00C0013F08AB004008AC000A1259
:1008B8008A152E270A128A111330F4000A128A1593
:1008C80073250A128A11823083120313C000DD30A7
:1008D800BF00BF0B6D2CC00B6D2C5F280A128A114C
:1008E8000C28F700952D0430730203187C2C7D2CFE
:1008F8008C2C0130F500730A832C0310F50DFF3E94
:10090800031D812C7508FF3A831603178805962C5A
:1009180005307306031D912C922C962CEF3083160C
:10092800031788057403031D9A2C9B2CA92C0130EE
:10093800F500730AA12C0310F50DFF3E031D9F2C33
:100948007508831603138504AE2D0130F500730A6C
:10095800AF2C0310F50DFF3E031DAD2C7508FF3AB3
:10096800831603138505AE2D7308031DBC2CBD2CFF
:10097800C22CEF30831603178905F72C7303031D68
:10098800C62CC72CCC2CFB30831603178905F72CF3
:1009980002307306031DD12CD22CD72CFE308316BF
:1009A80003178905F72C03307306031DDC2CDD2C97
:1009B800E22CFD30831603178905F72C04307306E3
:1009C800031DE72CE82CED2CF73083160317890557
:1009D800F72C05307306031DF22CF32CF72CDF30AF
:1009E8008316031789057403031DFB2CFC2C0A2DA1
:1009F8000130F500730A022D0310F50DFF3E031DAB
:100A0800002D7508831603138604AE2D0130F500FA
:100A1800730A102D0310F50DFF3E031D0E2D7508EA
:100A2800FF3A831603138605AE2D7403031D1D2D8F
:100A38001E2D2C2D0130F500730A242D0310F50D01
:100A4800FF3E031D222D7508831603138704AE2D60
:100A58000130F500730A322D0310F50DFF3E031D1A
:100A6800302D7508FF3A831603138705AE2D7403DE
:100A7800031D3F2D402D4E2D0130F500730A462DE4
:100A88000310F50DFF3E031D442D7508831603134F
:100A98008804AE2D0130F500730A542D0310F50DAE
:100AA800FF3E031D522D7508FF3A83160313880570
:100AB800AE2D033073020318622D632D732D0130A0
:100AC800F5007308053E013E6B2D0310F50DFF3E42
:100AD800031D692D7508FF3A8316031788057403EB
:100AE800031D772D782D862D0130F500730A7E2D94
:100AF8000310F50DFF3E031D7C2D750883160313A7
:100B08008904AE2D0130F500730A8C2D0310F50D04
:100B1800FF3E031D8A2D7508FF3A831603138905C6
:100B2800AE2D7708F500F6017608003A03199D2DD9
:100B3800AE2D7508003A0319772C013A0319B82C21
:100B4800033A0319192D013A03193B2D073A0319E2
:100B58005D2DAE2D0800F7005B2E7403031DB52D27
:100B6800B62DC42D0130F500730ABC2D0310F50D08
:100B7800FF3E031DBA2D7508831203138504742ED6
:100B88000130F500730ACA2D0310F50DFF3E031D51
:100B9800C82D7508FF3A831203138505742E740354
:100BA800031DD72DD82DE62D0130F500730ADE2D53
:100BB8000310F50DFF3E031DDC2D7508831203138A
:100BC8008604742E0130F500730AEC2D0310F50D20
:100BD800FF3E031DEA2D7508FF3A831203138605AD
:100BE800742E7403031DF92DFA2D082E0130F5001B
:100BF800730A002E0310F50DFF3E031DFE2D750828
:100C0800831203138704742E0130F500730A0E2E25
:100C18000310F50DFF3E031D0C2E7508FF3A8312D5
:100C280003138705742E7403031D1B2E1C2E2A2EF6
:100C38000130F500730A222E0310F50DFF3E031D47
:100C4800202E7508831203138804742E0130F500D2
:100C5800730A302E0310F50DFF3E031D2E2E750866
:100C6800FF3A831203138805742E7403031D3D2E67
:100C78003E2E4C2E0130F500730A442E0310F50D5C
:100C8800FF3E031D422E7508831203138904742E38
:100C98000130F500730A522E0310F50DFF3E031DB7
:100CA800502E7508FF3A831203138905742E7708AE
:100CB800F500F6017608003A0319632E742E7508BC
:100CC800003A0319B12D013A0319D32D033A031938
:100CD800F52D013A0319172E073A0319392E742EE8
:100CE80008008B130B130230F300F40103300A12CF
:100CF8008A1175240A128A110330F300F4010330B3
:100D08000A128A1175240A128A110730F300F401B5
:100D180003300A128A1175240A128A110230F3006C
:100D2800F40103300A128A11AF250A128A1103301E
:100D3800F300F40103300A128A11AF250A128A114E
:100D48000730F300F40103300A128A11AF250A12A2
:100D58008A110430F300F40103300A128A11752451
:100D68000A128A110530F300F40103300A128A11BD
:100D780075240A128A110630F300F40103300A12AE
:100D88008A1175240A128A110430F300F401033021
:100D98000A128A11AF250A128A110530F300F401EC
:100DA80003300A128A11AF250A128A110630F3009D
:100DB800F40103300A128A11AF250A128A1102308F
:100DC800F300F401F40A01300A128A1175240A1298
:100DD8008A1102300A128A1547250A128A1103302D
:100DE800F300F401F40A01300A128A1175240A1278
:100DF8008A1103300A128A1547250A128A1104300B
:100E0800F300F401F40A01300A128A1175240A1257
:100E18008A1104300A128A1547250A128A110530E8
:100E2800F300F401F40A01300A128A1175240A1237
:100E38008A1105300A128A1547250A128A110800F4
:100E4800F600912F0130F400730A2C2F0310F40DD3
:100E5800FF3E031D2A2F7408831203130505031D83
:100E6800362F382F0130392F0030F700AA2F0130E4
:100E7800F400730A412F0310F40DFF3E031D3F2FAA
:100E88007408831203130605031D4B2F4D2F0130E1
:100E98004E2F0030F700AA2F0130F400730A562FA6
:100EA8000310F40DFF3E031D542F7408831203131F
:100EB8000705031D602F622F0130632F0030F700F4
:100EC800AA2F0130F400730A6B2F0310F40DFF3EB4
:100ED800031D692F7408831203130805031D752F5A
:100EE800772F0130782F0030F700AA2F0130F40057
:100EF800730A802F0310F40DFF3E031D7E2F740824
:100F0800831203130905031D8A2F8C2F01308D2F9F
:100F18000030F700AA2F0030B12F7608F400F50151
:100F28007508003A0319992F8F2F7408003A03198E
:100F3800262F013A03193B2F033A0319502F013A80
:100F48000319652F073A03197A2F8F2F7708031D86
:100F5800AE2FB02F0130B12F003008000030F7005D
:100F68000030F6000030F5000030F400831203135F
:100F7800201CBF2FC02FD72F2408F40725080311E2
:100F88000318013E0319C92FF50726080311031892
:100F9800013E0319D02FF607270803110318013E55
:100FA8000319D72FF7070130F3000310A40DA50D7F
:100FB800A60DA70DF30BD92F01300310A30CA20C1B
:100FC800A10CA00CFF3E031DE12F230822042104DD
:100FD8002004031DF02FF12FBA2F7708A3007608FD
:0C0FE800A2007508A1007408A000080019
:1010000008308A000408840A820700342C345634DD
:101010004F344C3454343A3400342C344C3445344A
:1010200044343A3400344134443443343A340034A0
:0C1030000A3400342E3400343034003414
:101A16008130831203139F008030831603139F00C7
:101A26000800831203136608F6006508F5006408CB
:101A3600F4006308F3000800F30083160313981CF0
:101A4600252D262D202D73088312031399000800D7
:101A560083160313811281110111811001140630BE
:101A66008312031381008B160800F93083160313C3
:101A7600920083120313971517159210121412155C
:101A86008316031307110800F4008316031381134A
:101A96000130F300740A512D0310F30DFF3E031DB0
:101AA6004F2D730895040800063083120313810036
:101AB6000130FA0705307A02031C622D632D722D60
:101AC6000130E307003003180130E4070030031843
:101AD6000130E507003003180130E607FA01080077
:101AE600822D740884000A128A1500200A128A15AB
:101AF6000A128A151F250A128A150130F40774087E
:101B060084000A128A1500200A128A15003A031D5B
:101B16008D2D8E2D742D0800F701F801731C942D60
:101B2600952D9B2D7508F7070318F80A7608F80710
:101B360001300310F50DF60DFF3E031D9C2D0130FF
:101B46000310F40CF30CFF3E031DA32D730874045D
:101B5600031DAE2DAF2D912D7808F4007708F30004
:101B66000800F6000E307602031CBA2DBB2DBE2DE2
:101B7600F301F401DE2DC330831203139F057608AB
:101B8600F50001300310F50DFF3E031DC52D0310B2
:101B9600750D9F042130F500F50BCF2D831203132D
:101BA6009F149F18D72DD82DD42D1E08F400831608
:101BB60003131E08F3000800831603130713871781
:101BC600831203133808AB003708AA003608A900A9
:101BD6003508A8000030AF001330AE001230AD005B
:101BE600D030AC000A128A15C8260A128A1583124A
:101BF60003132808FF3E83160313990018151812BD
:101C0600831203139817831603139816831203136C
:101C160018168316031318138312031318130800D8
:101C26008B1E162E172E212E0B1D1A2E1B2E212E25
:101C36000A128A1557250A128A150B1183160313E1
:101C46008C1E262E272E432E831203138C1E2C2E1B
:101C56002D2E432E1A08F2000A3072060319342E6E
:101C6600352E3D2E0D30720603193A2E3B2E3D2E93
:101C76007208E700981C402E412E432E18121816A3
:101C860071088A00700E8300FE0E7E0E0900831214
:101C96000313270828040319512E522E7F2E0130D4
:101CA600F9005E2E01300310A70DA80DFF3E031D9F
:101CB600562E0130F907A81F612E622E552E2808D0
:101CC6002A02031D682E27082902031C6B2E6C2E80
:101CD600722E2708A9022808031CAA03AA020130AB
:101CE6000310A80CA70CFF3E031D732E0130F9024A
:101CF600031D7E2E7F2E622E2A08A8002908A70023
:101D0600080083120313A401A50120082104031966
:101D16008D2E8E2EC32E0130A6009A2E0130031072
:101D2600A00DA10DFF3E031D922E0130A607A11F97
:101D36009D2E9E2E912E01300310A40DA50DFF3E63
:101D4600031D9F2E21082302031DAB2E200822020D
:101D5600031CAE2EAF2EB62E2008A2022108031CAD
:101D6600A303A302241401300310A10CA00CFF3E10
:101D7600031DB72E0130A602031DC22EC32E9E2EB2
:101D86002508A1002408A0000800003083120313D0
:101D9600B3000030B2000030B1000030B0002B08B4
:101DA6002A04290428040319D92EDA2E252F0130F6
:101DB600B400E82E0130F8000310A80DA90DAA0DF5
:101DC600AB0DF80BDF2E0130B407AB1FEB2EEC2E5C
:101DD600DD2E0130F8000310B00DB10DB20DB30DBC
:101DE600F80BEE2E2B082F02031D032F2A082E02B6
:101DF600031D032F29082D02031D032F28082C027B
:101E0600031C062F072F162F2808AC022908031CCF
:101E1600290FAD022A08031C2A0FAE022B08031C49
:101E26002B0FAF02301401300310AB0CAA0CA90C17
:101E3600A80CFF3E031D172F0130B402031D242FEB
:101E4600252FEC2E3308AB003208AA003108A90072
:101E56003008A800080083120313B301B4012B084D
:101E66002C04031D372F382F6E2F30300A128A1597
:101E76001F250A128A15942F33082D3E84000A3036
:101E8600A7000030A8002C08AA002B08A9000A12F7
:101E96008A154A260A128A15831203132708303E2A
:101EA600831380000130B3070318B40A0030B40767
:101EB6000A30A0000030A1002C08A3002B08A200C5
:101EC6000A128A1584260A128A1583120313210818
:101ED600AC002008AB002B082C04031D732F742FB5
:101EE6003F2F3308FF3EB50034080318013EFF3E7E
:101EF600B600B61F7F2F802F812F942F35082D3ED9
:101F06008400831300080A128A151F250A128A15EF
:101F1600FF3083120313B5070318B60AFF30B6075E
:101F26007C2F080004308312031336020030031995
:101F36003502031C9F2FA02FA42FFF30B5000330BE
:101F4600B6000030AB000030AA000330A900FF3015
:101F5600A8003508A0003608A100A201A3010030A0
:101F6600A7000030A6000330A500E830A4000A123E
:101F76008A11B2270A128A15831203132308AF00A7
:101F86002208AE002108AD002008AC000A128A150E
:101F9600C8260A128A15831203132B08BE002A08C4
:101FA600BD002908BC002808BB00BB18DB2FDF2FAB
:101FB600831203139716E22F8312031397123B180B
:101FC600E52FE92F831203131716EC2F8312031341
:101FD60017123B08B7003C08B8003D08B9003E0898
:101FE600BA0002300310BA0CB90CB80CB70CFF3E9D
:0A1FF600031DF52F370895000800C1
:02400E00E223AB
:00000001FF
